{
  "_format": "hh-sol-artifact-1",
  "contractName": "LiquidNFT_deployer",
  "sourceName": "contracts/LiquidNFT_deployer.sol",
  "abi": [
    {
      "inputs": [
        {
          "internalType": "string",
          "name": "_erc20Name",
          "type": "string"
        },
        {
          "internalType": "string",
          "name": "_erc20Symbol",
          "type": "string"
        },
        {
          "internalType": "uint256",
          "name": "_totalSupply",
          "type": "uint256"
        },
        {
          "internalType": "string",
          "name": "_erc721Name",
          "type": "string"
        },
        {
          "internalType": "string",
          "name": "_erc721Symbol",
          "type": "string"
        },
        {
          "internalType": "string",
          "name": "_baseURI",
          "type": "string"
        }
      ],
      "name": "deploy",
      "outputs": [],
      "stateMutability": "nonpayable",
      "type": "function"
    },
    {
      "inputs": [],
      "name": "erc20Token",
      "outputs": [
        {
          "internalType": "contract LNT20",
          "name": "",
          "type": "address"
        }
      ],
      "stateMutability": "view",
      "type": "function"
    },
    {
      "inputs": [],
      "name": "erc721Collection",
      "outputs": [
        {
          "internalType": "contract LNT721",
          "name": "",
          "type": "address"
        }
      ],
      "stateMutability": "view",
      "type": "function"
    },
    {
      "inputs": [],
      "name": "vault",
      "outputs": [
        {
          "internalType": "contract LiquidVault",
          "name": "",
          "type": "address"
        }
      ],
      "stateMutability": "view",
      "type": "function"
    }
  ],
  "bytecode": "0x608060405234801561001057600080fd5b506143b8806100206000396000f3fe60806040523480156200001157600080fd5b5060043610620000525760003560e01c8063372dd82b14620000575780638a13eea714620000a1578063a1e52de114620000c2578063fbfa77cf14620000db575b600080fd5b600154620000789073ffffffffffffffffffffffffffffffffffffffff1681565b60405173ffffffffffffffffffffffffffffffffffffffff909116815260200160405180910390f35b600054620000789073ffffffffffffffffffffffffffffffffffffffff1681565b620000d9620000d3366004620003b1565b620000fc565b005b600254620000789073ffffffffffffffffffffffffffffffffffffffff1681565b8585856040516200010d90620002a5565b6200011b9392919062000501565b604051809103906000f08015801562000138573d6000803e3d6000fd5b50600080547fffffffffffffffffffffffff00000000000000000000000000000000000000001673ffffffffffffffffffffffffffffffffffffffff9290921691821790556040518490849084906200019190620002b3565b620001a094939291906200053b565b604051809103906000f080158015620001bd573d6000803e3d6000fd5b50600180547fffffffffffffffffffffffff00000000000000000000000000000000000000001673ffffffffffffffffffffffffffffffffffffffff9283169081179091556000546040519216916200021690620002c1565b73ffffffffffffffffffffffffffffffffffffffff928316815291166020820152604001604051809103906000f08015801562000257573d6000803e3d6000fd5b50600280547fffffffffffffffffffffffff00000000000000000000000000000000000000001673ffffffffffffffffffffffffffffffffffffffff92909216919091179055505050505050565b6110e380620005a283390190565b6120f0806200168583390190565b610c0e806200377583390190565b7f4e487b7100000000000000000000000000000000000000000000000000000000600052604160045260246000fd5b600082601f8301126200031057600080fd5b813567ffffffffffffffff808211156200032e576200032e620002cf565b604051601f83017fffffffffffffffffffffffffffffffffffffffffffffffffffffffffffffffe0908116603f01168101908282118183101715620003775762000377620002cf565b816040528381528660208588010111156200039157600080fd5b836020870160208301376000602085830101528094505050505092915050565b60008060008060008060c08789031215620003cb57600080fd5b863567ffffffffffffffff80821115620003e457600080fd5b620003f28a838b01620002fe565b975060208901359150808211156200040957600080fd5b620004178a838b01620002fe565b96506040890135955060608901359150808211156200043557600080fd5b620004438a838b01620002fe565b945060808901359150808211156200045a57600080fd5b620004688a838b01620002fe565b935060a08901359150808211156200047f57600080fd5b506200048e89828a01620002fe565b9150509295509295509295565b6000815180845260005b81811015620004c357602081850181015186830182015201620004a5565b5060006020828601015260207fffffffffffffffffffffffffffffffffffffffffffffffffffffffffffffffe0601f83011685010191505092915050565b6060815260006200051660608301866200049b565b82810360208401526200052a81866200049b565b915050826040830152949350505050565b73ffffffffffffffffffffffffffffffffffffffff851681526080602082015260006200056c60808301866200049b565b82810360408401526200058081866200049b565b905082810360608401526200059681856200049b565b97965050505050505056fe60806040523480156200001157600080fd5b50604051620010e3380380620010e383398101604081905262000034916200024a565b828260036200004483826200034b565b5060046200005382826200034b565b5050506200008a336200006b6200009360201b60201c565b6200007890600a6200052c565b62000084908462000544565b62000098565b50505062000574565b601290565b6001600160a01b038216620000f35760405162461bcd60e51b815260206004820152601f60248201527f45524332303a206d696e7420746f20746865207a65726f206164647265737300604482015260640160405180910390fd5b80600260008282546200010791906200055e565b90915550506001600160a01b03821660009081526020819052604081208054839290620001369084906200055e565b90915550506040518181526001600160a01b038316906000907fddf252ad1be2c89b69c2b068fc378daa952ba7f163c4a11628f55a4df523b3ef9060200160405180910390a35050565b505050565b634e487b7160e01b600052604160045260246000fd5b600082601f830112620001ad57600080fd5b81516001600160401b0380821115620001ca57620001ca62000185565b604051601f8301601f19908116603f01168101908282118183101715620001f557620001f562000185565b816040528381526020925086838588010111156200021257600080fd5b600091505b8382101562000236578582018301518183018401529082019062000217565b600093810190920192909252949350505050565b6000806000606084860312156200026057600080fd5b83516001600160401b03808211156200027857600080fd5b62000286878388016200019b565b945060208601519150808211156200029d57600080fd5b50620002ac868287016200019b565b925050604084015190509250925092565b600181811c90821680620002d257607f821691505b602082108103620002f357634e487b7160e01b600052602260045260246000fd5b50919050565b601f8211156200018057600081815260208120601f850160051c81016020861015620003225750805b601f850160051c820191505b8181101562000343578281556001016200032e565b505050505050565b81516001600160401b0381111562000367576200036762000185565b6200037f81620003788454620002bd565b84620002f9565b602080601f831160018114620003b757600084156200039e5750858301515b600019600386901b1c1916600185901b17855562000343565b600085815260208120601f198616915b82811015620003e857888601518255948401946001909101908401620003c7565b5085821015620004075787850151600019600388901b60f8161c191681555b5050505050600190811b01905550565b634e487b7160e01b600052601160045260246000fd5b600181815b808511156200046e57816000190482111562000452576200045262000417565b808516156200046057918102915b93841c939080029062000432565b509250929050565b600082620004875750600162000526565b81620004965750600062000526565b8160018114620004af5760028114620004ba57620004da565b600191505062000526565b60ff841115620004ce57620004ce62000417565b50506001821b62000526565b5060208310610133831016604e8410600b8410161715620004ff575081810a62000526565b6200050b83836200042d565b806000190482111562000522576200052262000417565b0290505b92915050565b60006200053d60ff84168362000476565b9392505050565b808202811582820484141762000526576200052662000417565b8082018082111562000526576200052662000417565b610b5f80620005846000396000f3fe608060405234801561001057600080fd5b50600436106100c95760003560e01c80633950935111610081578063a457c2d71161005b578063a457c2d714610194578063a9059cbb146101a7578063dd62ed3e146101ba57600080fd5b8063395093511461014357806370a082311461015657806395d89b411461018c57600080fd5b806318160ddd116100b257806318160ddd1461010f57806323b872dd14610121578063313ce5671461013457600080fd5b806306fdde03146100ce578063095ea7b3146100ec575b600080fd5b6100d6610200565b6040516100e3919061094c565b60405180910390f35b6100ff6100fa3660046109e1565b610292565b60405190151581526020016100e3565b6002545b6040519081526020016100e3565b6100ff61012f366004610a0b565b6102ac565b604051601281526020016100e3565b6100ff6101513660046109e1565b6102d0565b610113610164366004610a47565b73ffffffffffffffffffffffffffffffffffffffff1660009081526020819052604090205490565b6100d661031c565b6100ff6101a23660046109e1565b61032b565b6100ff6101b53660046109e1565b610401565b6101136101c8366004610a69565b73ffffffffffffffffffffffffffffffffffffffff918216600090815260016020908152604080832093909416825291909152205490565b60606003805461020f90610a9c565b80601f016020809104026020016040519081016040528092919081815260200182805461023b90610a9c565b80156102885780601f1061025d57610100808354040283529160200191610288565b820191906000526020600020905b81548152906001019060200180831161026b57829003601f168201915b5050505050905090565b6000336102a081858561040f565b60019150505b92915050565b6000336102ba8582856105c2565b6102c5858585610699565b506001949350505050565b33600081815260016020908152604080832073ffffffffffffffffffffffffffffffffffffffff871684529091528120549091906102a09082908690610317908790610aef565b61040f565b60606004805461020f90610a9c565b33600081815260016020908152604080832073ffffffffffffffffffffffffffffffffffffffff87168452909152812054909190838110156103f4576040517f08c379a000000000000000000000000000000000000000000000000000000000815260206004820152602560248201527f45524332303a2064656372656173656420616c6c6f77616e63652062656c6f7760448201527f207a65726f00000000000000000000000000000000000000000000000000000060648201526084015b60405180910390fd5b6102c5828686840361040f565b6000336102a0818585610699565b73ffffffffffffffffffffffffffffffffffffffff83166104b1576040517f08c379a0000000000000000000000000000000000000000000000000000000008152602060048201526024808201527f45524332303a20617070726f76652066726f6d20746865207a65726f2061646460448201527f726573730000000000000000000000000000000000000000000000000000000060648201526084016103eb565b73ffffffffffffffffffffffffffffffffffffffff8216610554576040517f08c379a000000000000000000000000000000000000000000000000000000000815260206004820152602260248201527f45524332303a20617070726f766520746f20746865207a65726f20616464726560448201527f737300000000000000000000000000000000000000000000000000000000000060648201526084016103eb565b73ffffffffffffffffffffffffffffffffffffffff83811660008181526001602090815260408083209487168084529482529182902085905590518481527f8c5be1e5ebec7d5bd14f71427d1e84f3dd0314c0f7b2291e5b200ac8c7c3b925910160405180910390a3505050565b73ffffffffffffffffffffffffffffffffffffffff8381166000908152600160209081526040808320938616835292905220547fffffffffffffffffffffffffffffffffffffffffffffffffffffffffffffffff81146106935781811015610686576040517f08c379a000000000000000000000000000000000000000000000000000000000815260206004820152601d60248201527f45524332303a20696e73756666696369656e7420616c6c6f77616e636500000060448201526064016103eb565b610693848484840361040f565b50505050565b73ffffffffffffffffffffffffffffffffffffffff831661073c576040517f08c379a000000000000000000000000000000000000000000000000000000000815260206004820152602560248201527f45524332303a207472616e736665722066726f6d20746865207a65726f20616460448201527f647265737300000000000000000000000000000000000000000000000000000060648201526084016103eb565b73ffffffffffffffffffffffffffffffffffffffff82166107df576040517f08c379a000000000000000000000000000000000000000000000000000000000815260206004820152602360248201527f45524332303a207472616e7366657220746f20746865207a65726f206164647260448201527f657373000000000000000000000000000000000000000000000000000000000060648201526084016103eb565b73ffffffffffffffffffffffffffffffffffffffff831660009081526020819052604090205481811015610895576040517f08c379a000000000000000000000000000000000000000000000000000000000815260206004820152602660248201527f45524332303a207472616e7366657220616d6f756e742065786365656473206260448201527f616c616e6365000000000000000000000000000000000000000000000000000060648201526084016103eb565b73ffffffffffffffffffffffffffffffffffffffff8085166000908152602081905260408082208585039055918516815290812080548492906108d9908490610aef565b925050819055508273ffffffffffffffffffffffffffffffffffffffff168473ffffffffffffffffffffffffffffffffffffffff167fddf252ad1be2c89b69c2b068fc378daa952ba7f163c4a11628f55a4df523b3ef8460405161093f91815260200190565b60405180910390a3610693565b600060208083528351808285015260005b818110156109795785810183015185820160400152820161095d565b5060006040828601015260407fffffffffffffffffffffffffffffffffffffffffffffffffffffffffffffffe0601f8301168501019250505092915050565b803573ffffffffffffffffffffffffffffffffffffffff811681146109dc57600080fd5b919050565b600080604083850312156109f457600080fd5b6109fd836109b8565b946020939093013593505050565b600080600060608486031215610a2057600080fd5b610a29846109b8565b9250610a37602085016109b8565b9150604084013590509250925092565b600060208284031215610a5957600080fd5b610a62826109b8565b9392505050565b60008060408385031215610a7c57600080fd5b610a85836109b8565b9150610a93602084016109b8565b90509250929050565b600181811c90821680610ab057607f821691505b602082108103610ae9577f4e487b7100000000000000000000000000000000000000000000000000000000600052602260045260246000fd5b50919050565b808201808211156102a6577f4e487b7100000000000000000000000000000000000000000000000000000000600052601160045260246000fdfea2646970667358221220f2c64ed5e3ba8756059c44c6fab5b573f43a324135ded7bac8f3155cfcab4c7564736f6c6343000811003360a06040523480156200001157600080fd5b50604051620020f0380380620020f0833981016040819052620000349162000231565b8282600062000044838262000372565b50600162000053828262000372565b505050620000706200006a6200011660201b60201c565b6200011a565b6001600160a01b03841660805260096200008b828262000372565b50670de0b6b3a76400006080516001600160a01b03166318160ddd6040518163ffffffff1660e01b8152600401602060405180830381865afa158015620000d6573d6000803e3d6000fd5b505050506040513d601f19601f82011682018060405250810190620000fc91906200043e565b62000108919062000458565b600a55506200047b92505050565b3390565b600780546001600160a01b038381166001600160a01b0319831681179093556040519116919082907f8be0079c531659141344cd1fd0a4f28419497f9722a3daafe3b4186f6b6457e090600090a35050565b634e487b7160e01b600052604160045260246000fd5b600082601f8301126200019457600080fd5b81516001600160401b0380821115620001b157620001b16200016c565b604051601f8301601f19908116603f01168101908282118183101715620001dc57620001dc6200016c565b81604052838152602092508683858801011115620001f957600080fd5b600091505b838210156200021d5785820183015181830184015290820190620001fe565b600093810190920192909252949350505050565b600080600080608085870312156200024857600080fd5b84516001600160a01b03811681146200026057600080fd5b60208601519094506001600160401b03808211156200027e57600080fd5b6200028c8883890162000182565b94506040870151915080821115620002a357600080fd5b620002b18883890162000182565b93506060870151915080821115620002c857600080fd5b50620002d78782880162000182565b91505092959194509250565b600181811c90821680620002f857607f821691505b6020821081036200031957634e487b7160e01b600052602260045260246000fd5b50919050565b601f8211156200036d57600081815260208120601f850160051c81016020861015620003485750805b601f850160051c820191505b81811015620003695782815560010162000354565b5050505b505050565b81516001600160401b038111156200038e576200038e6200016c565b620003a6816200039f8454620002e3565b846200031f565b602080601f831160018114620003de5760008415620003c55750858301515b600019600386901b1c1916600185901b17855562000369565b600085815260208120601f198616915b828110156200040f57888601518255948401946001909101908401620003ee565b50858210156200042e5787850151600019600388901b60f8161c191681555b5050505050600190811b01905550565b6000602082840312156200045157600080fd5b5051919050565b6000826200047657634e487b7160e01b600052601260045260246000fd5b500490565b608051611c596200049760003960006102630152611c596000f3fe608060405234801561001057600080fd5b50600436106101515760003560e01c806370a08231116100cd578063a22cb46511610081578063c87b56dd11610066578063c87b56dd146102d1578063e985e9c5146102e4578063f2fde38b1461032d57600080fd5b8063a22cb465146102ab578063b88d4fde146102be57600080fd5b80638a13eea7116100b25780638a13eea71461025e5780638da5cb5b1461028557806395d89b41146102a357600080fd5b806370a0823114610243578063715018a61461025657600080fd5b806318160ddd1161012457806340c10f191161010957806340c10f191461020a57806342842e0e1461021d5780636352211e1461023057600080fd5b806318160ddd146101e057806323b872dd146101f757600080fd5b806301ffc9a71461015657806306fdde031461017e578063081812fc14610193578063095ea7b3146101cb575b600080fd5b61016961016436600461172f565b610340565b60405190151581526020015b60405180910390f35b610186610425565b60405161017591906117ba565b6101a66101a13660046117cd565b6104b7565b60405173ffffffffffffffffffffffffffffffffffffffff9091168152602001610175565b6101de6101d936600461180f565b6104eb565b005b6101e9600a5481565b604051908152602001610175565b6101de610205366004611839565b610673565b6101de61021836600461180f565b6106fa565b6101de61022b366004611839565b6107cd565b6101a661023e3660046117cd565b6107e8565b6101e9610251366004611875565b61085a565b6101de61090e565b6101a67f000000000000000000000000000000000000000000000000000000000000000081565b60075473ffffffffffffffffffffffffffffffffffffffff166101a6565b610186610922565b6101de6102b9366004611890565b610931565b6101de6102cc3660046118fb565b610940565b6101866102df3660046117cd565b6109ce565b6101696102f23660046119f5565b73ffffffffffffffffffffffffffffffffffffffff918216600090815260056020908152604080832093909416825291909152205460ff1690565b6101de61033b366004611875565b6109d9565b60007fffffffff0000000000000000000000000000000000000000000000000000000082167f80ac58cd0000000000000000000000000000000000000000000000000000000014806103d357507fffffffff0000000000000000000000000000000000000000000000000000000082167f5b5e139f00000000000000000000000000000000000000000000000000000000145b8061041f57507f01ffc9a7000000000000000000000000000000000000000000000000000000007fffffffff000000000000000000000000000000000000000000000000000000008316145b92915050565b60606000805461043490611a28565b80601f016020809104026020016040519081016040528092919081815260200182805461046090611a28565b80156104ad5780601f10610482576101008083540402835291602001916104ad565b820191906000526020600020905b81548152906001019060200180831161049057829003601f168201915b5050505050905090565b60006104c282610a76565b5060009081526004602052604090205473ffffffffffffffffffffffffffffffffffffffff1690565b60006104f6826107e8565b90508073ffffffffffffffffffffffffffffffffffffffff168373ffffffffffffffffffffffffffffffffffffffff160361059e5760405162461bcd60e51b815260206004820152602160248201527f4552433732313a20617070726f76616c20746f2063757272656e74206f776e6560448201527f720000000000000000000000000000000000000000000000000000000000000060648201526084015b60405180910390fd5b3373ffffffffffffffffffffffffffffffffffffffff821614806105f2575073ffffffffffffffffffffffffffffffffffffffff8116600090815260056020908152604080832033845290915290205460ff165b6106645760405162461bcd60e51b815260206004820152603e60248201527f4552433732313a20617070726f76652063616c6c6572206973206e6f7420746f60448201527f6b656e206f776e6572206e6f7220617070726f76656420666f7220616c6c00006064820152608401610595565b61066e8383610ae7565b505050565b61067d3382610b87565b6106ef5760405162461bcd60e51b815260206004820152602e60248201527f4552433732313a2063616c6c6572206973206e6f7420746f6b656e206f776e6560448201527f72206e6f7220617070726f7665640000000000000000000000000000000000006064820152608401610595565b61066e838383610c47565b610702610e7a565b600a546008541061077b5760405162461bcd60e51b815260206004820152602260248201527f436f6c6c656374696f6e2068617320616c7265616479206265656e206d696e7460448201527f65640000000000000000000000000000000000000000000000000000000000006064820152608401610595565b60005b81811080156107905750600a54600854105b1561066e5760006107a060085490565b90506107b0600880546001019055565b6107ba8482610ee1565b50806107c581611aaa565b91505061077e565b61066e83838360405180602001604052806000815250610940565b60008181526002602052604081205473ffffffffffffffffffffffffffffffffffffffff168061041f5760405162461bcd60e51b815260206004820152601860248201527f4552433732313a20696e76616c696420746f6b656e20494400000000000000006044820152606401610595565b600073ffffffffffffffffffffffffffffffffffffffff82166108e55760405162461bcd60e51b815260206004820152602960248201527f4552433732313a2061646472657373207a65726f206973206e6f74206120766160448201527f6c6964206f776e657200000000000000000000000000000000000000000000006064820152608401610595565b5073ffffffffffffffffffffffffffffffffffffffff1660009081526003602052604090205490565b610916610e7a565b610920600061106f565b565b60606001805461043490611a28565b61093c3383836110e6565b5050565b61094a3383610b87565b6109bc5760405162461bcd60e51b815260206004820152602e60248201527f4552433732313a2063616c6c6572206973206e6f7420746f6b656e206f776e6560448201527f72206e6f7220617070726f7665640000000000000000000000000000000000006064820152608401610595565b6109c8848484846111f9565b50505050565b606061041f82611282565b6109e1610e7a565b73ffffffffffffffffffffffffffffffffffffffff8116610a6a5760405162461bcd60e51b815260206004820152602660248201527f4f776e61626c653a206e6577206f776e657220697320746865207a65726f206160448201527f64647265737300000000000000000000000000000000000000000000000000006064820152608401610595565b610a738161106f565b50565b60008181526002602052604090205473ffffffffffffffffffffffffffffffffffffffff16610a735760405162461bcd60e51b815260206004820152601860248201527f4552433732313a20696e76616c696420746f6b656e20494400000000000000006044820152606401610595565b600081815260046020526040902080547fffffffffffffffffffffffff00000000000000000000000000000000000000001673ffffffffffffffffffffffffffffffffffffffff84169081179091558190610b41826107e8565b73ffffffffffffffffffffffffffffffffffffffff167f8c5be1e5ebec7d5bd14f71427d1e84f3dd0314c0f7b2291e5b200ac8c7c3b92560405160405180910390a45050565b600080610b93836107e8565b90508073ffffffffffffffffffffffffffffffffffffffff168473ffffffffffffffffffffffffffffffffffffffff161480610c01575073ffffffffffffffffffffffffffffffffffffffff80821660009081526005602090815260408083209388168352929052205460ff165b80610c3f57508373ffffffffffffffffffffffffffffffffffffffff16610c27846104b7565b73ffffffffffffffffffffffffffffffffffffffff16145b949350505050565b8273ffffffffffffffffffffffffffffffffffffffff16610c67826107e8565b73ffffffffffffffffffffffffffffffffffffffff1614610cf05760405162461bcd60e51b815260206004820152602560248201527f4552433732313a207472616e736665722066726f6d20696e636f72726563742060448201527f6f776e65720000000000000000000000000000000000000000000000000000006064820152608401610595565b73ffffffffffffffffffffffffffffffffffffffff8216610d785760405162461bcd60e51b8152602060048201526024808201527f4552433732313a207472616e7366657220746f20746865207a65726f2061646460448201527f72657373000000000000000000000000000000000000000000000000000000006064820152608401610595565b610d83600082610ae7565b73ffffffffffffffffffffffffffffffffffffffff83166000908152600360205260408120805460019290610db9908490611ae2565b909155505073ffffffffffffffffffffffffffffffffffffffff82166000908152600360205260408120805460019290610df4908490611af5565b909155505060008181526002602052604080822080547fffffffffffffffffffffffff00000000000000000000000000000000000000001673ffffffffffffffffffffffffffffffffffffffff86811691821790925591518493918716917fddf252ad1be2c89b69c2b068fc378daa952ba7f163c4a11628f55a4df523b3ef91a4505050565b60075473ffffffffffffffffffffffffffffffffffffffff1633146109205760405162461bcd60e51b815260206004820181905260248201527f4f776e61626c653a2063616c6c6572206973206e6f7420746865206f776e65726044820152606401610595565b73ffffffffffffffffffffffffffffffffffffffff8216610f445760405162461bcd60e51b815260206004820181905260248201527f4552433732313a206d696e7420746f20746865207a65726f20616464726573736044820152606401610595565b60008181526002602052604090205473ffffffffffffffffffffffffffffffffffffffff1615610fb65760405162461bcd60e51b815260206004820152601c60248201527f4552433732313a20746f6b656e20616c7265616479206d696e746564000000006044820152606401610595565b73ffffffffffffffffffffffffffffffffffffffff82166000908152600360205260408120805460019290610fec908490611af5565b909155505060008181526002602052604080822080547fffffffffffffffffffffffff00000000000000000000000000000000000000001673ffffffffffffffffffffffffffffffffffffffff861690811790915590518392907fddf252ad1be2c89b69c2b068fc378daa952ba7f163c4a11628f55a4df523b3ef908290a45050565b6007805473ffffffffffffffffffffffffffffffffffffffff8381167fffffffffffffffffffffffff0000000000000000000000000000000000000000831681179093556040519116919082907f8be0079c531659141344cd1fd0a4f28419497f9722a3daafe3b4186f6b6457e090600090a35050565b8173ffffffffffffffffffffffffffffffffffffffff168373ffffffffffffffffffffffffffffffffffffffff16036111615760405162461bcd60e51b815260206004820152601960248201527f4552433732313a20617070726f766520746f2063616c6c6572000000000000006044820152606401610595565b73ffffffffffffffffffffffffffffffffffffffff83811660008181526005602090815260408083209487168084529482529182902080547fffffffffffffffffffffffffffffffffffffffffffffffffffffffffffffff001686151590811790915591519182527f17307eab39ab6107e8899845ad3d59bd9653f200f220920489ca2b5937696c31910160405180910390a3505050565b611204848484610c47565b6112108484848461137d565b6109c85760405162461bcd60e51b815260206004820152603260248201527f4552433732313a207472616e7366657220746f206e6f6e20455243373231526560448201527f63656976657220696d706c656d656e74657200000000000000000000000000006064820152608401610595565b606061128d82610a76565b600082815260066020526040812080546112a690611a28565b80601f01602080910402602001604051908101604052809291908181526020018280546112d290611a28565b801561131f5780601f106112f45761010080835404028352916020019161131f565b820191906000526020600020905b81548152906001019060200180831161130257829003601f168201915b505050505090506000611330611556565b90508051600003611342575092915050565b81511561137457808260405160200161135c929190611b08565b60405160208183030381529060405292505050919050565b610c3f84611565565b600073ffffffffffffffffffffffffffffffffffffffff84163b1561154b576040517f150b7a0200000000000000000000000000000000000000000000000000000000815273ffffffffffffffffffffffffffffffffffffffff85169063150b7a02906113f4903390899088908890600401611b37565b6020604051808303816000875af192505050801561144d575060408051601f3d9081017fffffffffffffffffffffffffffffffffffffffffffffffffffffffffffffffe016820190925261144a91810190611b80565b60015b611500573d80801561147b576040519150601f19603f3d011682016040523d82523d6000602084013e611480565b606091505b5080516000036114f85760405162461bcd60e51b815260206004820152603260248201527f4552433732313a207472616e7366657220746f206e6f6e20455243373231526560448201527f63656976657220696d706c656d656e74657200000000000000000000000000006064820152608401610595565b805181602001fd5b7fffffffff00000000000000000000000000000000000000000000000000000000167f150b7a0200000000000000000000000000000000000000000000000000000000149050610c3f565b506001949350505050565b60606009805461043490611a28565b606061157082610a76565b600061157a611556565b9050600081511161159a57604051806020016040528060008152506115c5565b806115a4846115cc565b6040516020016115b5929190611b08565b6040516020818303038152906040525b9392505050565b60608160000361160f57505060408051808201909152600181527f3000000000000000000000000000000000000000000000000000000000000000602082015290565b8160005b8115611639578061162381611aaa565b91506116329050600a83611bcc565b9150611613565b60008167ffffffffffffffff811115611654576116546118cc565b6040519080825280601f01601f19166020018201604052801561167e576020820181803683370190505b5090505b8415610c3f57611693600183611ae2565b91506116a0600a86611be0565b6116ab906030611af5565b60f81b8183815181106116c0576116c0611bf4565b60200101907effffffffffffffffffffffffffffffffffffffffffffffffffffffffffffff1916908160001a9053506116fa600a86611bcc565b9450611682565b7fffffffff0000000000000000000000000000000000000000000000000000000081168114610a7357600080fd5b60006020828403121561174157600080fd5b81356115c581611701565b60005b8381101561176757818101518382015260200161174f565b50506000910152565b6000815180845261178881602086016020860161174c565b601f017fffffffffffffffffffffffffffffffffffffffffffffffffffffffffffffffe0169290920160200192915050565b6020815260006115c56020830184611770565b6000602082840312156117df57600080fd5b5035919050565b803573ffffffffffffffffffffffffffffffffffffffff8116811461180a57600080fd5b919050565b6000806040838503121561182257600080fd5b61182b836117e6565b946020939093013593505050565b60008060006060848603121561184e57600080fd5b611857846117e6565b9250611865602085016117e6565b9150604084013590509250925092565b60006020828403121561188757600080fd5b6115c5826117e6565b600080604083850312156118a357600080fd5b6118ac836117e6565b9150602083013580151581146118c157600080fd5b809150509250929050565b7f4e487b7100000000000000000000000000000000000000000000000000000000600052604160045260246000fd5b6000806000806080858703121561191157600080fd5b61191a856117e6565b9350611928602086016117e6565b925060408501359150606085013567ffffffffffffffff8082111561194c57600080fd5b818701915087601f83011261196057600080fd5b813581811115611972576119726118cc565b604051601f82017fffffffffffffffffffffffffffffffffffffffffffffffffffffffffffffffe0908116603f011681019083821181831017156119b8576119b86118cc565b816040528281528a60208487010111156119d157600080fd5b82602086016020830137600060208483010152809550505050505092959194509250565b60008060408385031215611a0857600080fd5b611a11836117e6565b9150611a1f602084016117e6565b90509250929050565b600181811c90821680611a3c57607f821691505b602082108103611a75577f4e487b7100000000000000000000000000000000000000000000000000000000600052602260045260246000fd5b50919050565b7f4e487b7100000000000000000000000000000000000000000000000000000000600052601160045260246000fd5b60007fffffffffffffffffffffffffffffffffffffffffffffffffffffffffffffffff8203611adb57611adb611a7b565b5060010190565b8181038181111561041f5761041f611a7b565b8082018082111561041f5761041f611a7b565b60008351611b1a81846020880161174c565b835190830190611b2e81836020880161174c565b01949350505050565b600073ffffffffffffffffffffffffffffffffffffffff808716835280861660208401525083604083015260806060830152611b766080830184611770565b9695505050505050565b600060208284031215611b9257600080fd5b81516115c581611701565b7f4e487b7100000000000000000000000000000000000000000000000000000000600052601260045260246000fd5b600082611bdb57611bdb611b9d565b500490565b600082611bef57611bef611b9d565b500690565b7f4e487b7100000000000000000000000000000000000000000000000000000000600052603260045260246000fdfea2646970667358221220d6a3e5aaad17377b0de9846c37d888266f0cad8c93ac0999145dc42586c99c7064736f6c6343000811003360e060405234801561001057600080fd5b50604051610c0e380380610c0e83398101604081905261002f916100db565b6001600160a01b03808316608081905290821660a052604080516318160ddd60e01b81529051670de0b6b3a764000092916318160ddd9160048083019260209291908290030181865afa15801561008a573d6000803e3d6000fd5b505050506040513d601f19601f820116820180604052508101906100ae9190610115565b6100b8919061012e565b60c052506101509050565b6001600160a01b03811681146100d857600080fd5b50565b600080604083850312156100ee57600080fd5b82516100f9816100c3565b602084015190925061010a816100c3565b809150509250929050565b60006020828403121561012757600080fd5b5051919050565b60008261014b57634e487b7160e01b600052601260045260246000fd5b500490565b60805160a05160c051610a586101b66000396000818160da015281816101e8015261022101526000818161010f015281816103bb015281816104580152818161055801526106bc01526000818161015b015281816102f201526107810152610a586000f3fe608060405234801561001057600080fd5b506004361061007d5760003560e01c8063372dd82b1161005b578063372dd82b1461010a5780638a13eea7146101565780639910c3e21461017d578063c5bc1e3c146101a057600080fd5b80630c063ee614610082578063150b7a021461008c57806318160ddd146100d5575b600080fd5b61008a6101af565b005b61009f61009a36600461087d565b610518565b6040517fffffffff0000000000000000000000000000000000000000000000000000000090911681526020015b60405180910390f35b6100fc7f000000000000000000000000000000000000000000000000000000000000000081565b6040519081526020016100cc565b6101317f000000000000000000000000000000000000000000000000000000000000000081565b60405173ffffffffffffffffffffffffffffffffffffffff90911681526020016100cc565b6101317f000000000000000000000000000000000000000000000000000000000000000081565b61019061018b366004610918565b610828565b60405190151581526020016100cc565b6100fc670de0b6b3a764000081565b60005b600081620f424081106101c7576101c7610931565b602081049091015460ff601f9092166101000a900416151560010361021f577f0000000000000000000000000000000000000000000000000000000000000000811461021f57806102178161098f565b9150506101b2565b7f000000000000000000000000000000000000000000000000000000000000000081106102ad576040517f08c379a000000000000000000000000000000000000000000000000000000000815260206004820152601d60248201527f4e6f20617661696c61626c65204e465420696e20746865207661756c7400000060448201526064015b60405180910390fd5b6040517f23b872dd000000000000000000000000000000000000000000000000000000008152336004820152306024820152670de0b6b3a764000060448201526000907f000000000000000000000000000000000000000000000000000000000000000073ffffffffffffffffffffffffffffffffffffffff16906323b872dd906064016020604051808303816000875af1158015610350573d6000803e3d6000fd5b505050506040513d601f19601f8201168201806040525081019061037491906109c7565b90508061038057600080fd5b6040517f42842e0e000000000000000000000000000000000000000000000000000000008152306004820152336024820152604481018390527f000000000000000000000000000000000000000000000000000000000000000073ffffffffffffffffffffffffffffffffffffffff16906342842e0e90606401600060405180830381600087803b15801561041457600080fd5b505af1158015610428573d6000803e3d6000fd5b50506040517f70a082310000000000000000000000000000000000000000000000000000000081523060048201527f000000000000000000000000000000000000000000000000000000000000000073ffffffffffffffffffffffffffffffffffffffff1692506370a082319150602401602060405180830381865afa1580156104b6573d6000803e3d6000fd5b505050506040513d601f19601f820116820180604052508101906104da91906109f0565b617a12556001600083620f424081106104f5576104f5610931565b602091828204019190066101000a81548160ff0219169083151502179055505050565b6000617a1254600161052a9190610a09565b6040517f70a082310000000000000000000000000000000000000000000000000000000081523060048201527f000000000000000000000000000000000000000000000000000000000000000073ffffffffffffffffffffffffffffffffffffffff16906370a0823190602401602060405180830381865afa1580156105b4573d6000803e3d6000fd5b505050506040513d601f19601f820116820180604052508101906105d891906109f0565b1461063f576040517f08c379a000000000000000000000000000000000000000000000000000000000815260206004820152601360248201527f4e4654206e6f742077686974656c69737465640000000000000000000000000060448201526064016102a4565b60008085620f4240811061065557610655610931565b602081049091018054921515601f9092166101000a91820260ff909202199092161790556040517f70a0823100000000000000000000000000000000000000000000000000000000815230600482015273ffffffffffffffffffffffffffffffffffffffff7f000000000000000000000000000000000000000000000000000000000000000016906370a0823190602401602060405180830381865afa158015610703573d6000803e3d6000fd5b505050506040513d601f19601f8201168201806040525081019061072791906109f0565b617a12556040517fa9059cbb00000000000000000000000000000000000000000000000000000000815273ffffffffffffffffffffffffffffffffffffffff8781166004830152670de0b6b3a764000060248301526000917f00000000000000000000000000000000000000000000000000000000000000009091169063a9059cbb906044016020604051808303816000875af11580156107cc573d6000803e3d6000fd5b505050506040513d601f19601f820116820180604052508101906107f091906109c7565b9050806107fc57600080fd5b507f150b7a02000000000000000000000000000000000000000000000000000000009695505050505050565b600081620f4240811061083a57600080fd5b60209182820401919006915054906101000a900460ff1681565b803573ffffffffffffffffffffffffffffffffffffffff8116811461087857600080fd5b919050565b60008060008060006080868803121561089557600080fd5b61089e86610854565b94506108ac60208701610854565b935060408601359250606086013567ffffffffffffffff808211156108d057600080fd5b818801915088601f8301126108e457600080fd5b8135818111156108f357600080fd5b89602082850101111561090557600080fd5b9699959850939650602001949392505050565b60006020828403121561092a57600080fd5b5035919050565b7f4e487b7100000000000000000000000000000000000000000000000000000000600052603260045260246000fd5b7f4e487b7100000000000000000000000000000000000000000000000000000000600052601160045260246000fd5b60007fffffffffffffffffffffffffffffffffffffffffffffffffffffffffffffffff82036109c0576109c0610960565b5060010190565b6000602082840312156109d957600080fd5b815180151581146109e957600080fd5b9392505050565b600060208284031215610a0257600080fd5b5051919050565b80820180821115610a1c57610a1c610960565b9291505056fea264697066735822122071e4057c5123fcafb59bdcc56d79d0a686cb3130fa59cba99fe0f42a1018f14764736f6c63430008110033a2646970667358221220a44ea067113cdd5f27a0bb969566f3bb4377ee0ab4ce3c32af4fe452a2427c4f64736f6c63430008110033",
  "linkReferences": {},
  "deployedLinkReferences": {}
}