{
  "_format": "hh-sol-artifact-1",
  "contractName": "LiquidVault",
  "sourceName": "contracts/Vault.sol",
  "abi": [
    {
      "inputs": [
        {
          "internalType": "contract IERC20",
          "name": "_erc20Token",
          "type": "address"
        },
        {
          "internalType": "contract IERC721",
          "name": "_erc721Collection",
          "type": "address"
        }
      ],
      "stateMutability": "nonpayable",
      "type": "constructor"
    },
    {
      "inputs": [],
      "name": "AMOUNT_OF_ERC20_PER_ERC721",
      "outputs": [
        {
          "internalType": "uint256",
          "name": "",
          "type": "uint256"
        }
      ],
      "stateMutability": "view",
      "type": "function"
    },
    {
      "inputs": [
        {
          "internalType": "uint256",
          "name": "",
          "type": "uint256"
        }
      ],
      "name": "collectionTracker",
      "outputs": [
        {
          "internalType": "bool",
          "name": "",
          "type": "bool"
        }
      ],
      "stateMutability": "view",
      "type": "function"
    },
    {
      "inputs": [],
      "name": "erc20Token",
      "outputs": [
        {
          "internalType": "contract IERC20",
          "name": "",
          "type": "address"
        }
      ],
      "stateMutability": "view",
      "type": "function"
    },
    {
      "inputs": [],
      "name": "erc20toErc721",
      "outputs": [],
      "stateMutability": "nonpayable",
      "type": "function"
    },
    {
      "inputs": [],
      "name": "erc721Collection",
      "outputs": [
        {
          "internalType": "contract IERC721",
          "name": "",
          "type": "address"
        }
      ],
      "stateMutability": "view",
      "type": "function"
    },
    {
      "inputs": [
        {
          "internalType": "address",
          "name": "_operator",
          "type": "address"
        },
        {
          "internalType": "address",
          "name": "",
          "type": "address"
        },
        {
          "internalType": "uint256",
          "name": "_tokenId",
          "type": "uint256"
        },
        {
          "internalType": "bytes",
          "name": "",
          "type": "bytes"
        }
      ],
      "name": "onERC721Received",
      "outputs": [
        {
          "internalType": "bytes4",
          "name": "",
          "type": "bytes4"
        }
      ],
      "stateMutability": "nonpayable",
      "type": "function"
    },
    {
      "inputs": [],
      "name": "totalSupply",
      "outputs": [
        {
          "internalType": "uint256",
          "name": "",
          "type": "uint256"
        }
      ],
      "stateMutability": "view",
      "type": "function"
    }
  ],
  "bytecode": "0x60e060405234801561001057600080fd5b50604051610c0e380380610c0e83398101604081905261002f916100db565b6001600160a01b03808316608081905290821660a052604080516318160ddd60e01b81529051670de0b6b3a764000092916318160ddd9160048083019260209291908290030181865afa15801561008a573d6000803e3d6000fd5b505050506040513d601f19601f820116820180604052508101906100ae9190610115565b6100b8919061012e565b60c052506101509050565b6001600160a01b03811681146100d857600080fd5b50565b600080604083850312156100ee57600080fd5b82516100f9816100c3565b602084015190925061010a816100c3565b809150509250929050565b60006020828403121561012757600080fd5b5051919050565b60008261014b57634e487b7160e01b600052601260045260246000fd5b500490565b60805160a05160c051610a586101b66000396000818160da015281816101e8015261022101526000818161010f015281816103bb015281816104580152818161055801526106bc01526000818161015b015281816102f201526107810152610a586000f3fe608060405234801561001057600080fd5b506004361061007d5760003560e01c8063372dd82b1161005b578063372dd82b1461010a5780638a13eea7146101565780639910c3e21461017d578063c5bc1e3c146101a057600080fd5b80630c063ee614610082578063150b7a021461008c57806318160ddd146100d5575b600080fd5b61008a6101af565b005b61009f61009a36600461087d565b610518565b6040517fffffffff0000000000000000000000000000000000000000000000000000000090911681526020015b60405180910390f35b6100fc7f000000000000000000000000000000000000000000000000000000000000000081565b6040519081526020016100cc565b6101317f000000000000000000000000000000000000000000000000000000000000000081565b60405173ffffffffffffffffffffffffffffffffffffffff90911681526020016100cc565b6101317f000000000000000000000000000000000000000000000000000000000000000081565b61019061018b366004610918565b610828565b60405190151581526020016100cc565b6100fc670de0b6b3a764000081565b60005b600081620f424081106101c7576101c7610931565b602081049091015460ff601f9092166101000a900416151560010361021f577f0000000000000000000000000000000000000000000000000000000000000000811461021f57806102178161098f565b9150506101b2565b7f000000000000000000000000000000000000000000000000000000000000000081106102ad576040517f08c379a000000000000000000000000000000000000000000000000000000000815260206004820152601d60248201527f4e6f20617661696c61626c65204e465420696e20746865207661756c7400000060448201526064015b60405180910390fd5b6040517f23b872dd000000000000000000000000000000000000000000000000000000008152336004820152306024820152670de0b6b3a764000060448201526000907f000000000000000000000000000000000000000000000000000000000000000073ffffffffffffffffffffffffffffffffffffffff16906323b872dd906064016020604051808303816000875af1158015610350573d6000803e3d6000fd5b505050506040513d601f19601f8201168201806040525081019061037491906109c7565b90508061038057600080fd5b6040517f42842e0e000000000000000000000000000000000000000000000000000000008152306004820152336024820152604481018390527f000000000000000000000000000000000000000000000000000000000000000073ffffffffffffffffffffffffffffffffffffffff16906342842e0e90606401600060405180830381600087803b15801561041457600080fd5b505af1158015610428573d6000803e3d6000fd5b50506040517f70a082310000000000000000000000000000000000000000000000000000000081523060048201527f000000000000000000000000000000000000000000000000000000000000000073ffffffffffffffffffffffffffffffffffffffff1692506370a082319150602401602060405180830381865afa1580156104b6573d6000803e3d6000fd5b505050506040513d601f19601f820116820180604052508101906104da91906109f0565b617a12556001600083620f424081106104f5576104f5610931565b602091828204019190066101000a81548160ff0219169083151502179055505050565b6000617a1254600161052a9190610a09565b6040517f70a082310000000000000000000000000000000000000000000000000000000081523060048201527f000000000000000000000000000000000000000000000000000000000000000073ffffffffffffffffffffffffffffffffffffffff16906370a0823190602401602060405180830381865afa1580156105b4573d6000803e3d6000fd5b505050506040513d601f19601f820116820180604052508101906105d891906109f0565b1461063f576040517f08c379a000000000000000000000000000000000000000000000000000000000815260206004820152601360248201527f4e4654206e6f742077686974656c69737465640000000000000000000000000060448201526064016102a4565b60008085620f4240811061065557610655610931565b602081049091018054921515601f9092166101000a91820260ff909202199092161790556040517f70a0823100000000000000000000000000000000000000000000000000000000815230600482015273ffffffffffffffffffffffffffffffffffffffff7f000000000000000000000000000000000000000000000000000000000000000016906370a0823190602401602060405180830381865afa158015610703573d6000803e3d6000fd5b505050506040513d601f19601f8201168201806040525081019061072791906109f0565b617a12556040517fa9059cbb00000000000000000000000000000000000000000000000000000000815273ffffffffffffffffffffffffffffffffffffffff8781166004830152670de0b6b3a764000060248301526000917f00000000000000000000000000000000000000000000000000000000000000009091169063a9059cbb906044016020604051808303816000875af11580156107cc573d6000803e3d6000fd5b505050506040513d601f19601f820116820180604052508101906107f091906109c7565b9050806107fc57600080fd5b507f150b7a02000000000000000000000000000000000000000000000000000000009695505050505050565b600081620f4240811061083a57600080fd5b60209182820401919006915054906101000a900460ff1681565b803573ffffffffffffffffffffffffffffffffffffffff8116811461087857600080fd5b919050565b60008060008060006080868803121561089557600080fd5b61089e86610854565b94506108ac60208701610854565b935060408601359250606086013567ffffffffffffffff808211156108d057600080fd5b818801915088601f8301126108e457600080fd5b8135818111156108f357600080fd5b89602082850101111561090557600080fd5b9699959850939650602001949392505050565b60006020828403121561092a57600080fd5b5035919050565b7f4e487b7100000000000000000000000000000000000000000000000000000000600052603260045260246000fd5b7f4e487b7100000000000000000000000000000000000000000000000000000000600052601160045260246000fd5b60007fffffffffffffffffffffffffffffffffffffffffffffffffffffffffffffffff82036109c0576109c0610960565b5060010190565b6000602082840312156109d957600080fd5b815180151581146109e957600080fd5b9392505050565b600060208284031215610a0257600080fd5b5051919050565b80820180821115610a1c57610a1c610960565b9291505056fea2646970667358221220d8660efa0e0406e179f259548bf17d0e7a68dcc8b159ba449f8c362925f3493264736f6c63430008110033",
  "linkReferences": {},
  "deployedLinkReferences": {}
}