{
  "_format": "hh-sol-artifact-1",
  "contractName": "LNT721",
  "sourceName": "contracts/LNT721.sol",
  "abi": [
    {
      "inputs": [
        {
          "internalType": "contract IERC20",
          "name": "_erc20Token",
          "type": "address"
        },
        {
          "internalType": "string",
          "name": "_name",
          "type": "string"
        },
        {
          "internalType": "string",
          "name": "_symbol",
          "type": "string"
        },
        {
          "internalType": "string",
          "name": "baseTokenURI",
          "type": "string"
        }
      ],
      "stateMutability": "nonpayable",
      "type": "constructor"
    },
    {
      "anonymous": false,
      "inputs": [
        {
          "indexed": true,
          "internalType": "address",
          "name": "owner",
          "type": "address"
        },
        {
          "indexed": true,
          "internalType": "address",
          "name": "approved",
          "type": "address"
        },
        {
          "indexed": true,
          "internalType": "uint256",
          "name": "tokenId",
          "type": "uint256"
        }
      ],
      "name": "Approval",
      "type": "event"
    },
    {
      "anonymous": false,
      "inputs": [
        {
          "indexed": true,
          "internalType": "address",
          "name": "owner",
          "type": "address"
        },
        {
          "indexed": true,
          "internalType": "address",
          "name": "operator",
          "type": "address"
        },
        {
          "indexed": false,
          "internalType": "bool",
          "name": "approved",
          "type": "bool"
        }
      ],
      "name": "ApprovalForAll",
      "type": "event"
    },
    {
      "anonymous": false,
      "inputs": [
        {
          "indexed": true,
          "internalType": "address",
          "name": "previousOwner",
          "type": "address"
        },
        {
          "indexed": true,
          "internalType": "address",
          "name": "newOwner",
          "type": "address"
        }
      ],
      "name": "OwnershipTransferred",
      "type": "event"
    },
    {
      "anonymous": false,
      "inputs": [
        {
          "indexed": true,
          "internalType": "address",
          "name": "from",
          "type": "address"
        },
        {
          "indexed": true,
          "internalType": "address",
          "name": "to",
          "type": "address"
        },
        {
          "indexed": true,
          "internalType": "uint256",
          "name": "tokenId",
          "type": "uint256"
        }
      ],
      "name": "Transfer",
      "type": "event"
    },
    {
      "inputs": [
        {
          "internalType": "address",
          "name": "to",
          "type": "address"
        },
        {
          "internalType": "uint256",
          "name": "tokenId",
          "type": "uint256"
        }
      ],
      "name": "approve",
      "outputs": [],
      "stateMutability": "nonpayable",
      "type": "function"
    },
    {
      "inputs": [
        {
          "internalType": "address",
          "name": "owner",
          "type": "address"
        }
      ],
      "name": "balanceOf",
      "outputs": [
        {
          "internalType": "uint256",
          "name": "",
          "type": "uint256"
        }
      ],
      "stateMutability": "view",
      "type": "function"
    },
    {
      "inputs": [],
      "name": "erc20Token",
      "outputs": [
        {
          "internalType": "contract IERC20",
          "name": "",
          "type": "address"
        }
      ],
      "stateMutability": "view",
      "type": "function"
    },
    {
      "inputs": [
        {
          "internalType": "uint256",
          "name": "tokenId",
          "type": "uint256"
        }
      ],
      "name": "getApproved",
      "outputs": [
        {
          "internalType": "address",
          "name": "",
          "type": "address"
        }
      ],
      "stateMutability": "view",
      "type": "function"
    },
    {
      "inputs": [
        {
          "internalType": "address",
          "name": "owner",
          "type": "address"
        },
        {
          "internalType": "address",
          "name": "operator",
          "type": "address"
        }
      ],
      "name": "isApprovedForAll",
      "outputs": [
        {
          "internalType": "bool",
          "name": "",
          "type": "bool"
        }
      ],
      "stateMutability": "view",
      "type": "function"
    },
    {
      "inputs": [
        {
          "internalType": "address",
          "name": "to",
          "type": "address"
        },
        {
          "internalType": "uint256",
          "name": "quantity",
          "type": "uint256"
        }
      ],
      "name": "mint",
      "outputs": [],
      "stateMutability": "nonpayable",
      "type": "function"
    },
    {
      "inputs": [],
      "name": "name",
      "outputs": [
        {
          "internalType": "string",
          "name": "",
          "type": "string"
        }
      ],
      "stateMutability": "view",
      "type": "function"
    },
    {
      "inputs": [],
      "name": "owner",
      "outputs": [
        {
          "internalType": "address",
          "name": "",
          "type": "address"
        }
      ],
      "stateMutability": "view",
      "type": "function"
    },
    {
      "inputs": [
        {
          "internalType": "uint256",
          "name": "tokenId",
          "type": "uint256"
        }
      ],
      "name": "ownerOf",
      "outputs": [
        {
          "internalType": "address",
          "name": "",
          "type": "address"
        }
      ],
      "stateMutability": "view",
      "type": "function"
    },
    {
      "inputs": [],
      "name": "renounceOwnership",
      "outputs": [],
      "stateMutability": "nonpayable",
      "type": "function"
    },
    {
      "inputs": [
        {
          "internalType": "address",
          "name": "from",
          "type": "address"
        },
        {
          "internalType": "address",
          "name": "to",
          "type": "address"
        },
        {
          "internalType": "uint256",
          "name": "tokenId",
          "type": "uint256"
        }
      ],
      "name": "safeTransferFrom",
      "outputs": [],
      "stateMutability": "nonpayable",
      "type": "function"
    },
    {
      "inputs": [
        {
          "internalType": "address",
          "name": "from",
          "type": "address"
        },
        {
          "internalType": "address",
          "name": "to",
          "type": "address"
        },
        {
          "internalType": "uint256",
          "name": "tokenId",
          "type": "uint256"
        },
        {
          "internalType": "bytes",
          "name": "data",
          "type": "bytes"
        }
      ],
      "name": "safeTransferFrom",
      "outputs": [],
      "stateMutability": "nonpayable",
      "type": "function"
    },
    {
      "inputs": [
        {
          "internalType": "address",
          "name": "operator",
          "type": "address"
        },
        {
          "internalType": "bool",
          "name": "approved",
          "type": "bool"
        }
      ],
      "name": "setApprovalForAll",
      "outputs": [],
      "stateMutability": "nonpayable",
      "type": "function"
    },
    {
      "inputs": [
        {
          "internalType": "bytes4",
          "name": "interfaceId",
          "type": "bytes4"
        }
      ],
      "name": "supportsInterface",
      "outputs": [
        {
          "internalType": "bool",
          "name": "",
          "type": "bool"
        }
      ],
      "stateMutability": "view",
      "type": "function"
    },
    {
      "inputs": [],
      "name": "symbol",
      "outputs": [
        {
          "internalType": "string",
          "name": "",
          "type": "string"
        }
      ],
      "stateMutability": "view",
      "type": "function"
    },
    {
      "inputs": [
        {
          "internalType": "uint256",
          "name": "tokenId",
          "type": "uint256"
        }
      ],
      "name": "tokenURI",
      "outputs": [
        {
          "internalType": "string",
          "name": "",
          "type": "string"
        }
      ],
      "stateMutability": "view",
      "type": "function"
    },
    {
      "inputs": [],
      "name": "totalSupply",
      "outputs": [
        {
          "internalType": "uint256",
          "name": "",
          "type": "uint256"
        }
      ],
      "stateMutability": "view",
      "type": "function"
    },
    {
      "inputs": [
        {
          "internalType": "address",
          "name": "from",
          "type": "address"
        },
        {
          "internalType": "address",
          "name": "to",
          "type": "address"
        },
        {
          "internalType": "uint256",
          "name": "tokenId",
          "type": "uint256"
        }
      ],
      "name": "transferFrom",
      "outputs": [],
      "stateMutability": "nonpayable",
      "type": "function"
    },
    {
      "inputs": [
        {
          "internalType": "address",
          "name": "newOwner",
          "type": "address"
        }
      ],
      "name": "transferOwnership",
      "outputs": [],
      "stateMutability": "nonpayable",
      "type": "function"
    }
  ],
  "bytecode": "0x60a06040523480156200001157600080fd5b50604051620020f0380380620020f0833981016040819052620000349162000231565b8282600062000044838262000372565b50600162000053828262000372565b505050620000706200006a6200011660201b60201c565b6200011a565b6001600160a01b03841660805260096200008b828262000372565b50670de0b6b3a76400006080516001600160a01b03166318160ddd6040518163ffffffff1660e01b8152600401602060405180830381865afa158015620000d6573d6000803e3d6000fd5b505050506040513d601f19601f82011682018060405250810190620000fc91906200043e565b62000108919062000458565b600a55506200047b92505050565b3390565b600780546001600160a01b038381166001600160a01b0319831681179093556040519116919082907f8be0079c531659141344cd1fd0a4f28419497f9722a3daafe3b4186f6b6457e090600090a35050565b634e487b7160e01b600052604160045260246000fd5b600082601f8301126200019457600080fd5b81516001600160401b0380821115620001b157620001b16200016c565b604051601f8301601f19908116603f01168101908282118183101715620001dc57620001dc6200016c565b81604052838152602092508683858801011115620001f957600080fd5b600091505b838210156200021d5785820183015181830184015290820190620001fe565b600093810190920192909252949350505050565b600080600080608085870312156200024857600080fd5b84516001600160a01b03811681146200026057600080fd5b60208601519094506001600160401b03808211156200027e57600080fd5b6200028c8883890162000182565b94506040870151915080821115620002a357600080fd5b620002b18883890162000182565b93506060870151915080821115620002c857600080fd5b50620002d78782880162000182565b91505092959194509250565b600181811c90821680620002f857607f821691505b6020821081036200031957634e487b7160e01b600052602260045260246000fd5b50919050565b601f8211156200036d57600081815260208120601f850160051c81016020861015620003485750805b601f850160051c820191505b81811015620003695782815560010162000354565b5050505b505050565b81516001600160401b038111156200038e576200038e6200016c565b620003a6816200039f8454620002e3565b846200031f565b602080601f831160018114620003de5760008415620003c55750858301515b600019600386901b1c1916600185901b17855562000369565b600085815260208120601f198616915b828110156200040f57888601518255948401946001909101908401620003ee565b50858210156200042e5787850151600019600388901b60f8161c191681555b5050505050600190811b01905550565b6000602082840312156200045157600080fd5b5051919050565b6000826200047657634e487b7160e01b600052601260045260246000fd5b500490565b608051611c596200049760003960006102630152611c596000f3fe608060405234801561001057600080fd5b50600436106101515760003560e01c806370a08231116100cd578063a22cb46511610081578063c87b56dd11610066578063c87b56dd146102d1578063e985e9c5146102e4578063f2fde38b1461032d57600080fd5b8063a22cb465146102ab578063b88d4fde146102be57600080fd5b80638a13eea7116100b25780638a13eea71461025e5780638da5cb5b1461028557806395d89b41146102a357600080fd5b806370a0823114610243578063715018a61461025657600080fd5b806318160ddd1161012457806340c10f191161010957806340c10f191461020a57806342842e0e1461021d5780636352211e1461023057600080fd5b806318160ddd146101e057806323b872dd146101f757600080fd5b806301ffc9a71461015657806306fdde031461017e578063081812fc14610193578063095ea7b3146101cb575b600080fd5b61016961016436600461172f565b610340565b60405190151581526020015b60405180910390f35b610186610425565b60405161017591906117ba565b6101a66101a13660046117cd565b6104b7565b60405173ffffffffffffffffffffffffffffffffffffffff9091168152602001610175565b6101de6101d936600461180f565b6104eb565b005b6101e9600a5481565b604051908152602001610175565b6101de610205366004611839565b610673565b6101de61021836600461180f565b6106fa565b6101de61022b366004611839565b6107cd565b6101a661023e3660046117cd565b6107e8565b6101e9610251366004611875565b61085a565b6101de61090e565b6101a67f000000000000000000000000000000000000000000000000000000000000000081565b60075473ffffffffffffffffffffffffffffffffffffffff166101a6565b610186610922565b6101de6102b9366004611890565b610931565b6101de6102cc3660046118fb565b610940565b6101866102df3660046117cd565b6109ce565b6101696102f23660046119f5565b73ffffffffffffffffffffffffffffffffffffffff918216600090815260056020908152604080832093909416825291909152205460ff1690565b6101de61033b366004611875565b6109d9565b60007fffffffff0000000000000000000000000000000000000000000000000000000082167f80ac58cd0000000000000000000000000000000000000000000000000000000014806103d357507fffffffff0000000000000000000000000000000000000000000000000000000082167f5b5e139f00000000000000000000000000000000000000000000000000000000145b8061041f57507f01ffc9a7000000000000000000000000000000000000000000000000000000007fffffffff000000000000000000000000000000000000000000000000000000008316145b92915050565b60606000805461043490611a28565b80601f016020809104026020016040519081016040528092919081815260200182805461046090611a28565b80156104ad5780601f10610482576101008083540402835291602001916104ad565b820191906000526020600020905b81548152906001019060200180831161049057829003601f168201915b5050505050905090565b60006104c282610a76565b5060009081526004602052604090205473ffffffffffffffffffffffffffffffffffffffff1690565b60006104f6826107e8565b90508073ffffffffffffffffffffffffffffffffffffffff168373ffffffffffffffffffffffffffffffffffffffff160361059e5760405162461bcd60e51b815260206004820152602160248201527f4552433732313a20617070726f76616c20746f2063757272656e74206f776e6560448201527f720000000000000000000000000000000000000000000000000000000000000060648201526084015b60405180910390fd5b3373ffffffffffffffffffffffffffffffffffffffff821614806105f2575073ffffffffffffffffffffffffffffffffffffffff8116600090815260056020908152604080832033845290915290205460ff165b6106645760405162461bcd60e51b815260206004820152603e60248201527f4552433732313a20617070726f76652063616c6c6572206973206e6f7420746f60448201527f6b656e206f776e6572206e6f7220617070726f76656420666f7220616c6c00006064820152608401610595565b61066e8383610ae7565b505050565b61067d3382610b87565b6106ef5760405162461bcd60e51b815260206004820152602e60248201527f4552433732313a2063616c6c6572206973206e6f7420746f6b656e206f776e6560448201527f72206e6f7220617070726f7665640000000000000000000000000000000000006064820152608401610595565b61066e838383610c47565b610702610e7a565b600a546008541061077b5760405162461bcd60e51b815260206004820152602260248201527f436f6c6c656374696f6e2068617320616c7265616479206265656e206d696e7460448201527f65640000000000000000000000000000000000000000000000000000000000006064820152608401610595565b60005b81811080156107905750600a54600854105b1561066e5760006107a060085490565b90506107b0600880546001019055565b6107ba8482610ee1565b50806107c581611aaa565b91505061077e565b61066e83838360405180602001604052806000815250610940565b60008181526002602052604081205473ffffffffffffffffffffffffffffffffffffffff168061041f5760405162461bcd60e51b815260206004820152601860248201527f4552433732313a20696e76616c696420746f6b656e20494400000000000000006044820152606401610595565b600073ffffffffffffffffffffffffffffffffffffffff82166108e55760405162461bcd60e51b815260206004820152602960248201527f4552433732313a2061646472657373207a65726f206973206e6f74206120766160448201527f6c6964206f776e657200000000000000000000000000000000000000000000006064820152608401610595565b5073ffffffffffffffffffffffffffffffffffffffff1660009081526003602052604090205490565b610916610e7a565b610920600061106f565b565b60606001805461043490611a28565b61093c3383836110e6565b5050565b61094a3383610b87565b6109bc5760405162461bcd60e51b815260206004820152602e60248201527f4552433732313a2063616c6c6572206973206e6f7420746f6b656e206f776e6560448201527f72206e6f7220617070726f7665640000000000000000000000000000000000006064820152608401610595565b6109c8848484846111f9565b50505050565b606061041f82611282565b6109e1610e7a565b73ffffffffffffffffffffffffffffffffffffffff8116610a6a5760405162461bcd60e51b815260206004820152602660248201527f4f776e61626c653a206e6577206f776e657220697320746865207a65726f206160448201527f64647265737300000000000000000000000000000000000000000000000000006064820152608401610595565b610a738161106f565b50565b60008181526002602052604090205473ffffffffffffffffffffffffffffffffffffffff16610a735760405162461bcd60e51b815260206004820152601860248201527f4552433732313a20696e76616c696420746f6b656e20494400000000000000006044820152606401610595565b600081815260046020526040902080547fffffffffffffffffffffffff00000000000000000000000000000000000000001673ffffffffffffffffffffffffffffffffffffffff84169081179091558190610b41826107e8565b73ffffffffffffffffffffffffffffffffffffffff167f8c5be1e5ebec7d5bd14f71427d1e84f3dd0314c0f7b2291e5b200ac8c7c3b92560405160405180910390a45050565b600080610b93836107e8565b90508073ffffffffffffffffffffffffffffffffffffffff168473ffffffffffffffffffffffffffffffffffffffff161480610c01575073ffffffffffffffffffffffffffffffffffffffff80821660009081526005602090815260408083209388168352929052205460ff165b80610c3f57508373ffffffffffffffffffffffffffffffffffffffff16610c27846104b7565b73ffffffffffffffffffffffffffffffffffffffff16145b949350505050565b8273ffffffffffffffffffffffffffffffffffffffff16610c67826107e8565b73ffffffffffffffffffffffffffffffffffffffff1614610cf05760405162461bcd60e51b815260206004820152602560248201527f4552433732313a207472616e736665722066726f6d20696e636f72726563742060448201527f6f776e65720000000000000000000000000000000000000000000000000000006064820152608401610595565b73ffffffffffffffffffffffffffffffffffffffff8216610d785760405162461bcd60e51b8152602060048201526024808201527f4552433732313a207472616e7366657220746f20746865207a65726f2061646460448201527f72657373000000000000000000000000000000000000000000000000000000006064820152608401610595565b610d83600082610ae7565b73ffffffffffffffffffffffffffffffffffffffff83166000908152600360205260408120805460019290610db9908490611ae2565b909155505073ffffffffffffffffffffffffffffffffffffffff82166000908152600360205260408120805460019290610df4908490611af5565b909155505060008181526002602052604080822080547fffffffffffffffffffffffff00000000000000000000000000000000000000001673ffffffffffffffffffffffffffffffffffffffff86811691821790925591518493918716917fddf252ad1be2c89b69c2b068fc378daa952ba7f163c4a11628f55a4df523b3ef91a4505050565b60075473ffffffffffffffffffffffffffffffffffffffff1633146109205760405162461bcd60e51b815260206004820181905260248201527f4f776e61626c653a2063616c6c6572206973206e6f7420746865206f776e65726044820152606401610595565b73ffffffffffffffffffffffffffffffffffffffff8216610f445760405162461bcd60e51b815260206004820181905260248201527f4552433732313a206d696e7420746f20746865207a65726f20616464726573736044820152606401610595565b60008181526002602052604090205473ffffffffffffffffffffffffffffffffffffffff1615610fb65760405162461bcd60e51b815260206004820152601c60248201527f4552433732313a20746f6b656e20616c7265616479206d696e746564000000006044820152606401610595565b73ffffffffffffffffffffffffffffffffffffffff82166000908152600360205260408120805460019290610fec908490611af5565b909155505060008181526002602052604080822080547fffffffffffffffffffffffff00000000000000000000000000000000000000001673ffffffffffffffffffffffffffffffffffffffff861690811790915590518392907fddf252ad1be2c89b69c2b068fc378daa952ba7f163c4a11628f55a4df523b3ef908290a45050565b6007805473ffffffffffffffffffffffffffffffffffffffff8381167fffffffffffffffffffffffff0000000000000000000000000000000000000000831681179093556040519116919082907f8be0079c531659141344cd1fd0a4f28419497f9722a3daafe3b4186f6b6457e090600090a35050565b8173ffffffffffffffffffffffffffffffffffffffff168373ffffffffffffffffffffffffffffffffffffffff16036111615760405162461bcd60e51b815260206004820152601960248201527f4552433732313a20617070726f766520746f2063616c6c6572000000000000006044820152606401610595565b73ffffffffffffffffffffffffffffffffffffffff83811660008181526005602090815260408083209487168084529482529182902080547fffffffffffffffffffffffffffffffffffffffffffffffffffffffffffffff001686151590811790915591519182527f17307eab39ab6107e8899845ad3d59bd9653f200f220920489ca2b5937696c31910160405180910390a3505050565b611204848484610c47565b6112108484848461137d565b6109c85760405162461bcd60e51b815260206004820152603260248201527f4552433732313a207472616e7366657220746f206e6f6e20455243373231526560448201527f63656976657220696d706c656d656e74657200000000000000000000000000006064820152608401610595565b606061128d82610a76565b600082815260066020526040812080546112a690611a28565b80601f01602080910402602001604051908101604052809291908181526020018280546112d290611a28565b801561131f5780601f106112f45761010080835404028352916020019161131f565b820191906000526020600020905b81548152906001019060200180831161130257829003601f168201915b505050505090506000611330611556565b90508051600003611342575092915050565b81511561137457808260405160200161135c929190611b08565b60405160208183030381529060405292505050919050565b610c3f84611565565b600073ffffffffffffffffffffffffffffffffffffffff84163b1561154b576040517f150b7a0200000000000000000000000000000000000000000000000000000000815273ffffffffffffffffffffffffffffffffffffffff85169063150b7a02906113f4903390899088908890600401611b37565b6020604051808303816000875af192505050801561144d575060408051601f3d9081017fffffffffffffffffffffffffffffffffffffffffffffffffffffffffffffffe016820190925261144a91810190611b80565b60015b611500573d80801561147b576040519150601f19603f3d011682016040523d82523d6000602084013e611480565b606091505b5080516000036114f85760405162461bcd60e51b815260206004820152603260248201527f4552433732313a207472616e7366657220746f206e6f6e20455243373231526560448201527f63656976657220696d706c656d656e74657200000000000000000000000000006064820152608401610595565b805181602001fd5b7fffffffff00000000000000000000000000000000000000000000000000000000167f150b7a0200000000000000000000000000000000000000000000000000000000149050610c3f565b506001949350505050565b60606009805461043490611a28565b606061157082610a76565b600061157a611556565b9050600081511161159a57604051806020016040528060008152506115c5565b806115a4846115cc565b6040516020016115b5929190611b08565b6040516020818303038152906040525b9392505050565b60608160000361160f57505060408051808201909152600181527f3000000000000000000000000000000000000000000000000000000000000000602082015290565b8160005b8115611639578061162381611aaa565b91506116329050600a83611bcc565b9150611613565b60008167ffffffffffffffff811115611654576116546118cc565b6040519080825280601f01601f19166020018201604052801561167e576020820181803683370190505b5090505b8415610c3f57611693600183611ae2565b91506116a0600a86611be0565b6116ab906030611af5565b60f81b8183815181106116c0576116c0611bf4565b60200101907effffffffffffffffffffffffffffffffffffffffffffffffffffffffffffff1916908160001a9053506116fa600a86611bcc565b9450611682565b7fffffffff0000000000000000000000000000000000000000000000000000000081168114610a7357600080fd5b60006020828403121561174157600080fd5b81356115c581611701565b60005b8381101561176757818101518382015260200161174f565b50506000910152565b6000815180845261178881602086016020860161174c565b601f017fffffffffffffffffffffffffffffffffffffffffffffffffffffffffffffffe0169290920160200192915050565b6020815260006115c56020830184611770565b6000602082840312156117df57600080fd5b5035919050565b803573ffffffffffffffffffffffffffffffffffffffff8116811461180a57600080fd5b919050565b6000806040838503121561182257600080fd5b61182b836117e6565b946020939093013593505050565b60008060006060848603121561184e57600080fd5b611857846117e6565b9250611865602085016117e6565b9150604084013590509250925092565b60006020828403121561188757600080fd5b6115c5826117e6565b600080604083850312156118a357600080fd5b6118ac836117e6565b9150602083013580151581146118c157600080fd5b809150509250929050565b7f4e487b7100000000000000000000000000000000000000000000000000000000600052604160045260246000fd5b6000806000806080858703121561191157600080fd5b61191a856117e6565b9350611928602086016117e6565b925060408501359150606085013567ffffffffffffffff8082111561194c57600080fd5b818701915087601f83011261196057600080fd5b813581811115611972576119726118cc565b604051601f82017fffffffffffffffffffffffffffffffffffffffffffffffffffffffffffffffe0908116603f011681019083821181831017156119b8576119b86118cc565b816040528281528a60208487010111156119d157600080fd5b82602086016020830137600060208483010152809550505050505092959194509250565b60008060408385031215611a0857600080fd5b611a11836117e6565b9150611a1f602084016117e6565b90509250929050565b600181811c90821680611a3c57607f821691505b602082108103611a75577f4e487b7100000000000000000000000000000000000000000000000000000000600052602260045260246000fd5b50919050565b7f4e487b7100000000000000000000000000000000000000000000000000000000600052601160045260246000fd5b60007fffffffffffffffffffffffffffffffffffffffffffffffffffffffffffffffff8203611adb57611adb611a7b565b5060010190565b8181038181111561041f5761041f611a7b565b8082018082111561041f5761041f611a7b565b60008351611b1a81846020880161174c565b835190830190611b2e81836020880161174c565b01949350505050565b600073ffffffffffffffffffffffffffffffffffffffff808716835280861660208401525083604083015260806060830152611b766080830184611770565b9695505050505050565b600060208284031215611b9257600080fd5b81516115c581611701565b7f4e487b7100000000000000000000000000000000000000000000000000000000600052601260045260246000fd5b600082611bdb57611bdb611b9d565b500490565b600082611bef57611bef611b9d565b500690565b7f4e487b7100000000000000000000000000000000000000000000000000000000600052603260045260246000fdfea2646970667358221220d6a3e5aaad17377b0de9846c37d888266f0cad8c93ac0999145dc42586c99c7064736f6c63430008110033",
  "linkReferences": {},
  "deployedLinkReferences": {}
}